:100000000C942A000C9447000C9447000C94470071
:100010000C9447000C9447000C9447000C94470044
:100020000C9447000C9447000C9447000C94470034
:100030000C9447000C94C3010C9447000C944700A7
:100040000C9447000C9447000C9447000C94470014
:100050000C94470011241FBECFE5D8E0DEBFCDBF12
:1000600010E0A0E6B0E0EAE0FDE002C005900D92ED
:10007000A838B107D9F720E0A8E8B0E001C01D9288
:10008000AF39B207E1F70E9417020C9483060C9473
:1000900000000F931F93CF93DF93CDB7DEB7289760
:1000A0000FB6F894DEBF0FBECDBF9F938F9380E64F
:1000B00090E09F938F931F9288E08F938E010F5F44
:1000C0001F4F1F930F930E94A0030FB6F894DEBF3B
:1000D0000FBECDBFF80181918F0181110BC0289611
:1000E0000FB6F894DEBF0FBECDBFDF91CF911F9149
:1000F0000F9108950E941302EDCF80E197E206B6BA
:1001000007FE02C081E008950197C9F780E00895D5
:1001100084B38C7F84BB85B3836085BB83E08A9581
:10012000F1F70000A09A89E0A89893E09A95F1F77A
:100130000000A89A93E09A95F1F700008150A1F78A
:1001400011B88AE080B984E086BF0895CF93C82FA4
:1001500084EA86BF0E947D00882351F0C3B984E8F9
:1001600086BF0E947D00982F81E0911101C080E040
:10017000CF91089583B984E886BF0C947D0084E90B
:1001800086BF83E08A95F1F700000895CF9320E1C0
:10019000829FC0011124C82FC860662311F0C82FA8
:1001A000C9608EE40E94A600882399F08C2F0E94DB
:1001B000BA0000C08C2F84600E94BA0000C08C2F4F
:1001C0000E94BA0080E18A95F1F700C0CF910C94AB
:1001D000BF00CF910895CF93DF93C82FD62F82957C
:1001E0008F700E94C6006D2F8C2F8F70DF91CF9182
:1001F0000C94C60060E081E00E94EB0081EE94E088
:100200000197F1F700C000000895962F8111905CCE
:1002100060E0892F80680C94EB00CF930E948800E7
:10022000C5E08EE40E94A600882309F44AC080E05D
:100230000E94BA000E94BF0083ED90E30197F1F79E
:1002400000C0000060E083E00E94C60083EC99E0FB
:100250000197F1F700C0000060E083E00E94C60053
:1002600083EF91E00197F1F700C0000060E083E0C8
:100270000E94C60083EF91E00197F1F700C00000F3
:1002800060E082E00E94C60081EE94E00197F1F701
:1002900000C0000060E088E20E94EB0060E088E0BF
:1002A0000E94EB000E94FA0060E086E00E94EB00F2
:1002B00060E08CE00E94EB0060E080E0CF910C9465
:1002C000050181EE94E00197F1F700C00000C150F4
:1002D00009F0A7CFB1CFCF93DF93EC0189918111C2
:1002E00003C0DF91CF91089561E00E94EB00F6CF4B
:1002F00080E487B985E886B9089597B1907E8770C4
:10030000982B97B9369A3699FECF84B195B1089556
:100310001F93CF93DF9300D000D000D0CDB7DEB7CE
:10032000182F6E831D8219821A821B821C824D81B6
:100330005E81451315C0242F30E050E040E0698114
:100340007A818B819C810E945803C90126960FB641
:10035000F894DEBF0FBECDBFDF91CF911F910895FE
:10036000812F0E947D0129813A814B815C81280F78
:10037000391F411D511D29833A834B835C833D8185
:100380003F5F3D83D4CF2F932FB72F933F938F930E
:100390009F93EF93FF932CB18091960090E001968C
:1003A0008770992730919500381741F0E0919600B9
:1003B000F0E0E956FF4F208380939600FF91EF9184
:1003C0009F918F913F912F912FBF2F91189590BDA5
:1003D00089B9599A88E98AB986E880BD5F9902C0CF
:1003E000789408958CB1FACF209196009091950061
:1003F00081E0291301C080E00895909196008091DA
:1004000095009817D1F3E0919500F0E0E956FF4F81
:1004100080812091950030E02F5F3F4F2770332778
:100420002093950008955D9BFECF8CB90895CDB7BC
:10043000DEB767970FB6F894DEBF0FBECDBF87B3A8
:10044000887F87BB88B3876088BB0E940D010E94AC
:1004500078018CE090E00E94E7016AE080E00E9471
:1004600088016AE080E00E9488016C0122242394C4
:100470008139914008F4212CB12CA12C512C31E070
:100480003A8B81E08C8B91E09B8B87E7882E80E014
:10049000982E91E1492E8E010F5F1F4F25E6622EA7
:1004A00020E0722E0E94F401811154C06AE00E9483
:1004B00088017C0121E02D8B8139914008F41D8A4F
:1004C00081E9E81681E0F80608F46CC021106AC0E2
:1004D0008091910090919200019690939200809368
:1004E000910081E096B39170392E96B3292F227036
:1004F000969591709E8B96B3492F447092FB9927E5
:1005000090F99F8B9B89913061F431100AC08091E2
:1005100091009091920001969093920080939100A7
:1005200081E03C89313009F03FC021113DC020916C
:1005300091003091920021153105B1F1215031091E
:1005400030939200209391008A898130B1F5442341
:1005500081F133C00E94FD01E09190008A30A1F446
:10056000F0E0E857FF4F10821092900080918800D1
:10057000833509F097CF89E890E00E947A03909341
:100580009400809393008ECFE73048F491E09E0F63
:1005900090939000F0E0E857FF4F808383CF109254
:1005A000900080CF80E09ECF9A89913079F44111FC
:1005B0000DC0109292001092910080919100909144
:1005C00092000E944900B12CA12C09C08111F5CFE5
:1005D0002FEFA21AB20A3EE1A316B10470F75394AA
:1005E00089E0851508F040C0809192008F9380913A
:1005F00091008F93809194008F93809193008F93BB
:100600007F926F921F924F921F930F930E94A003AD
:1006100060E080E00E940501C8010E946B01FF922A
:10062000EF929F928F921F924F921F930F930E946F
:10063000A00360E081E00E940501C8010E946B01F7
:100640000FB6F894DEBF0FBECDBF512C83EC99E0FE
:100650000197F1F700C000002D8867019F899A8BF0
:100660002E892C8B3B8A1ECFC7018C199D09CE1475
:10067000DF0418F0C6018E199F09C397B8F0FF92E6
:10068000EF929F928F921F924F921F930F930E940F
:10069000A00360E081E00E940501C8010E946B0197
:1006A0000FB6F894DEBF0FBECDBFD0CF7601CECF50
:1006B000A1E21A2EAA1BBB1BFD010DC0AA1FBB1F66
:1006C000EE1FFF1FA217B307E407F50720F0A21BD8
:1006D000B30BE40BF50B661F771F881F991F1A9445
:1006E00069F760957095809590959B01AC01BD016F
:1006F000CF010895FC0188279927E89421912032A1
:10070000E9F3293010F02E30C8F32B3241F02D32AE
:1007100039F4689404C00E949803820F911D2191BE
:1007200020532A30C0F31EF4909581959F4F089571
:100730007AE0979F902D879F802D910D1124089529
:10074000AEE0B0E0E6EAF3E00C945A060D891E89AB
:100750008F89988D26E02C831A83098397FF02C026
:1007600080E090E801979E838D83AE01455E5F4FE8
:10077000698D7A8DCE0101960E94D0034D815E81F4
:1007800057FD0AC02F813885421753070CF49A0190
:10079000020F131FF80110822E96E4E00C947606E7
:1007A000AFE0B0E0E6EDF3E00C944C067C013B01D9
:1007B0008A01DC0117961C921E92169713968C9153
:1007C00081FFC3C19AE0292EFE0131964F01D70166
:1007D00013969C91F30193FD859193FF81913F01C5
:1007E000882309F448C1853239F493FD859193FF3C
:1007F00081913F01853229F4B70190E00E94BE0546
:10080000E6CFB12C412C512CBFE1B51538F08B321D
:1008100009F188F4803201F1833221F157FC3AC0AA
:1008200020ED280F2A3040F556FE1FC0B29C200D47
:100830001124B22E06C08D3291F0803379F768947E
:1008400050F8F30193FD859193FF81913F01811150
:10085000DBCF20C0689451F8689452F8F2CF6894C6
:1008600053F8EFCF689454F8ECCF429C200D11243C
:10087000422E689455F8E5CF8E3229F456FCFBC021
:10088000689456F8DECF8C3619F4689457F8D9CFAF
:100890008836B9F2982F9F7D95549330C0F08336F7
:1008A000A1F18337C1F1833509F05BC0D801CD9048
:1008B000DD908D016B2D70E056FC02C06FEF7FEF75
:1008C000C6010E94A8055C01689457F80AC00C5F35
:1008D0001F4FEFE3E983AA24A394B12C6401E894A9
:1008E00057F853FC04C04A141B0409F018F5342CC3
:1008F000A114B10431F5332009F469CFB70180E2C6
:1009000090E00E94BE053A94F6CFD8018C9189837D
:100910000E5F1F4FE0CFF801C190D1908F016B2D7A
:1009200070E056FC02C06FEF7FEFC6010E94B30576
:100930005C01D5CFB70180E290E00E94BE054A94E9
:10094000D2CFF60157FC859157FE81916F01B70117
:1009500090E00E94BE0531103A94B1E0AB1AB108A4
:10096000C7CF843619F0893609F074C0F80157FEF4
:100970006AC061917191819191918F01E52DEF761E
:10098000DE2E97FF09C090958095709561957F4FF9
:100990008F4F9F4F6894D7F82AE030E0A4010E945F
:1009A000EE05C82EC818AC2C5D2CD6FE0CC0E89401
:1009B00050F8CB1440F4D4FE05C0D2FC03C05D2D2A
:1009C0005E7E552EAB2C54FE98C0FE01EC0DF11D41
:1009D0008081803309F08AC0652D697E562E752D81
:1009E0007870372E53FC98C050FE92C0BC2CA414D3
:1009F00018F44C0CB42CBA1854FE94C0B70180E320
:100A000090E00E94BE0552FE09C088E790E051FECA
:100A100002C088E590E0B7010E94BE05CB1408F43F
:100A20008DC0CA94D12C8FEFC81AD80AC80CD91C13
:100A3000D6018E916D01B70190E00E94BE058C1425
:100A40009D04B1F758CF61917191072E000C880B6E
:100A5000990B93CFD52CE894D4F82AE030E0853771
:100A600039F1F52DF97FDF2E8037A9F058F488355C
:100A7000A9F08F36D9F0F701868197812F96E2E1B0
:100A80000C9468068837B9F7D4FE02C06894D2F88F
:100A900020E130E00DC06894D4F8F6CF54FE03C0D6
:100AA0002F2F2660D22E20E132E002C028E030E075
:100AB000F801D7FE15C041915191619171914C8718
:100AC0005D876E877F878F01A4016C857D858E850C
:100AD0009F850E94EE05C82EC818E894D7F863CF0A
:100AE00081919191AC0170E060E0E9CF52FC02C0CD
:100AF000A39475CFA394A39472CF852D867809F41F
:100B00006ECFF6CFB70180E290E00E94BE05A394BD
:100B1000A414C0F3312C70CF342C3A18A41408F468
:100B20006BCFF8CF852D867809F478CF8BE251FE14
:100B300080E257FC8DE2B70190E06ECFB70180E311
:100B400090E00E94BE05BA9469CF8FEF9FEF96CFD9
:100B5000FC010590615070400110D8F78095909588
:100B60008E0F9F1F0895FC0161507040019001108D
:100B7000D8F7809590958E0F9F1F08950F931F9320
:100B8000CF93DF93182F092FEB018B8181FD09C0D3
:100B90001FEF0FEF812F902FDF91CF911F910F91BA
:100BA000089582FF14C02E813F818C819D8128177A
:100BB00039073CF4E881F981CF0101969983888354
:100BC00010838E819F8101969F838E83E3CFE8857A
:100BD000F985812F0995892BA1F3DACFFA01AA278C
:100BE000283051F1203181F1E8946F936E7F6E5F70
:100BF0007F4F8F4F9F4FAF4FB1E03ED0B4E03CD01E
:100C0000670F781F891F9A1FA11D680F791F8A1F00
:100C1000911DA11D6A0F711D811D911DA11D20D067
:100C200009F468943F912AE0269F11243019305D21
:100C30003193DEF6CF010895462F4770405D419312
:100C4000B3E00FD0C9F7F6CF462F4F70405D4A335F
:100C500018F0495D31FD4052419302D0A9F7EACF27
:100C6000B4E0A6959795879577956795BA95C9F756
:100C700000976105710508959B01AC010A2E069449
:100C80005795479537952795BA95C9F7620F731F02
:100C9000841F951FA01D08952F923F924F925F923F
:100CA0006F927F928F929F92AF92BF92CF92DF927C
:100CB000EF92FF920F931F93CF93DF93CDB7DEB7E1
:100CC000CA1BDB0B0FB6F894DEBF0FBECDBF099475
:100CD0002A88398848885F846E847D848C849B84CC
:100CE000AA84B984C884DF80EE80FD800C811B81DA
:100CF000AA81B981CE0FD11D0FB6F894DEBF0FBE09
:0A0D0000CDBFED010895F894FFCF78
:100D0A005325750A00412025752D2025752042207E
:100D1A00202020202020005261773A202534752097
:080D2A00202020202020000001
:00000001FF
