:100000000C942A000C9447000C9447000C94470071
:100010000C9447000C9447000C9447000C94470044
:100020000C9447000C9447000C9447000C94470034
:100030000C9447000C9449000C9447000C94470022
:100040000C9447000C9447000C9447000C94470014
:100050000C94470011241FBECFE5D8E0DEBFCDBF12
:1000600010E0A0E6B0E0EAEBF1E002C005900D92EE
:10007000A639B107D9F720E0A6E9B0E001C01D928A
:10008000A03AB207E1F70E949D000C94DB000C94AB
:1000900000002F932FB72F933F938F939F93EF934E
:1000A000FF932CB18091970090E00196877099277B
:1000B00030919600381741F0E0919700F0E0E85653
:1000C000FF4F208380939700FF91EF919F918F9135
:1000D0003F912F912FBF2F91189590BD89B9599AB3
:1000E00088E98AB986E880BD5F9902C0789408954E
:1000F0008CB1FACF209197009091960081E029135E
:1001000001C080E008959091970080919600981723
:10011000D1F3E0919600F0E0E856FF4F8081209106
:10012000960030E02F5F3F4F2770332720939600D3
:1001300008955D9BFECF8CB908958CE090E00E94FD
:100140006D0080E003E010E0C82FD0E0FE01EE0F6C
:10015000FF1FE05AFF4FE080F180F70181917F019E
:10016000811112C08AE00E949900CE010196B80167
:100170000E94C700FFE72AE136E0F15020403040FE
:10018000E1F700C00000E0CF0E949900E6CFAA1B73
:10019000BB1B51E107C0AA1FBB1FA617B70710F072
:1001A000A61BB70B881F991F5A95A9F780959095A4
:0A01B000BC01CD010895F894FFCFC3
:1001BA0066007500860032323035303331202D200A
:1001CA0041726A6F0032323035303335202D205378
:1001DA00616E6A6F790032323035303539202D2020
:0601EA004F68656500008E
:00000001FF
