:100000000C942A000C9447000C9447000C94470071
:100010000C9447000C9447000C9447000C94470044
:100020000C9447000C9447000C9447000C94470034
:100030000C9447000C943A010C9447000C94470030
:100040000C9447000C9447000C9447000C94470014
:100050000C94470011241FBECFE5D8E0DEBFCDBF12
:1000600010E0A0E6B0E0E0EAF3E002C005900D92F7
:10007000AC37B107D9F720E0ACE7B0E001C01D9282
:10008000A638B207E1F70E948E010C94CE010C94C1
:100090000000CF9320E1829FC0011124C82FC860C7
:1000A000662311F0C82FC960F8948EE40E941A01EB
:1000B000811103C07894CF9108958C2F0E942E0156
:1000C00000C08C2F84600E942E0100C08C2F0E94E3
:1000D0002E0180E18A95F1F700C00E943301EACF3A
:1000E000CF93DF93C82FD62F82958F700E9449003F
:1000F0006D2F8C2F8F70DF91CF910C94490060E0B1
:1001000081E00E94700081EE94E00197F1F700C059
:10011000000008950E94FC0083E294EF0197F1F73C
:1001200000C000008EE40E941A01882329F080E0BC
:100130000E942E010E94330183EC99E00197F1F7B0
:1001400000C0000060E083E00E94490083EC99E079
:100150000197F1F700C0000060E083E00E944900D1
:1001600083EF91E00197F1F700C0000060E083E0C9
:100170000E94490083EF91E00197F1F700C0000071
:1001800060E082E00E94490081EE94E00197F1F77F
:1001900000C0000060E088E20E94700060E088E03B
:1001A0000E9470000E947F0060E086E00E94700064
:1001B00060E08CE00C947000962F8111905C60E000
:1001C000892F80680C947000CF93DF93EC018991A4
:1001D000811103C0DF91CF91089561E00E9470000A
:1001E000F6CF80E197E206B607FE02C081E00895EF
:1001F0000197C9F780E0089584B38C7F84BB85B3F1
:10020000836085BB83E08A95F1F70000A09A89E0BE
:10021000A89893E09A95F1F70000A89A93E09A9530
:10022000F1F700008150A1F711B88AE080B984E0AD
:1002300086BF0895CF93C82F84EA86BF0E94F1003D
:10024000882351F0C3B984E886BF0E94F100982F3B
:1002500081E0911101C080E0CF91089583B984E8D5
:1002600086BF0C94F10084E986BF83E08A95F1F79C
:10027000000008952F932FB72F933F938F939F9351
:10028000EF93FF932CB180917D0090E001968770F1
:10029000992730917C00381741F0E0917D00F0E023
:1002A000E258FF4F208380937D00FF91EF919F9153
:1002B0008F913F912F912FBF2F91189590BD89B9A4
:1002C000599A88E98AB986E880BD5F9902C0789416
:1002D00008958CB1FACF20917D0090917C0081E04F
:1002E000291301C080E0089590917D0080917C00E9
:1002F0009817D1F3E0917C00F0E0E258FF4F808145
:1003000020917C0030E02F5F3F4F277033272093F0
:100310007C0008955D9BFECF8CB90895CDB7DEB704
:1003200061970FB6F894DEBF0FBECDBF8CE090E0B2
:100330000E945E010E948A0060E080E00E94DC0072
:1003400080E690E00E94E40010E00E947401212FFA
:1003500030E08A30B9F441E050E04C0F5D1F240FCB
:10036000351FF901108260E081E00E94DC008AE61E
:1003700090E00E94E40060E081E00E94DC00CE0199
:100380000196E0CF103108F71F5F41E050E04C0FBD
:100390005D1F240F351FF9018083D7CFF894FFCF5D
:1003A00052656365697665643A002020202020202C
:0C03B00020202020202020202020000001
:00000001FF
