:100000000C942A000C9447000C9447000C94470071
:100010000C9447000C9447000C9447000C94470044
:100020000C9447000C9447000C9447000C94470034
:100030000C9447000C94C3010C9447000C944700A7
:100040000C9447000C9447000C9447000C94470014
:100050000C94470011241FBECFE5D8E0DEBFCDBF12
:1000600010E0A0E6B0E0EEE6FDE002C005900D92E3
:10007000AE38B107D9F720E0AEE8B0E001C01D927C
:10008000A53AB207E1F70E9417020C94B5060C944A
:1000900000000F931F93CF93DF93CDB7DEB7289760
:1000A0000FB6F894DEBF0FBECDBF9F938F9380E64F
:1000B00090E09F938F931F9288E08F938E010F5F44
:1000C0001F4F1F930F930E94D2030FB6F894DEBF09
:1000D0000FBECDBFF80181918F0181110BC0289611
:1000E0000FB6F894DEBF0FBECDBFDF91CF911F9149
:1000F0000F9108950E941302EDCF80E197E206B6BA
:1001000007FE02C081E008950197C9F780E00895D5
:1001100084B38C7F84BB85B3836085BB83E08A9581
:10012000F1F70000A09A89E0A89893E09A95F1F77A
:100130000000A89A93E09A95F1F700008150A1F78A
:1001400011B88AE080B984E086BF0895CF93C82FA4
:1001500084EA86BF0E947D00882351F0C3B984E8F9
:1001600086BF0E947D00982F81E0911101C080E040
:10017000CF91089583B984E886BF0C947D0084E90B
:1001800086BF83E08A95F1F700000895CF9320E1C0
:10019000829FC0011124C82FC860662311F0C82FA8
:1001A000C9608EE40E94A600882399F08C2F0E94DB
:1001B000BA0000C08C2F84600E94BA0000C08C2F4F
:1001C0000E94BA0080E18A95F1F700C0CF910C94AB
:1001D000BF00CF910895CF93DF93C82FD62F82957C
:1001E0008F700E94C6006D2F8C2F8F70DF91CF9182
:1001F0000C94C60060E081E00E94EB0081EE94E088
:100200000197F1F700C000000895962F8111905CCE
:1002100060E0892F80680C94EB00CF930E948800E7
:10022000C5E08EE40E94A600882309F44AC080E05D
:100230000E94BA000E94BF0083ED90E30197F1F79E
:1002400000C0000060E083E00E94C60083EC99E0FB
:100250000197F1F700C0000060E083E00E94C60053
:1002600083EF91E00197F1F700C0000060E083E0C8
:100270000E94C60083EF91E00197F1F700C00000F3
:1002800060E082E00E94C60081EE94E00197F1F701
:1002900000C0000060E088E20E94EB0060E088E0BF
:1002A0000E94EB000E94FA0060E086E00E94EB00F2
:1002B00060E08CE00E94EB0060E080E0CF910C9465
:1002C000050181EE94E00197F1F700C00000C150F4
:1002D00009F0A7CFB1CFCF93DF93EC0189918111C2
:1002E00003C0DF91CF91089561E00E94EB00F6CF4B
:1002F00080E487B985E886B9089597B1907E8770C4
:10030000982B97B9369A3699FECF84B195B1089556
:100310001F93CF93DF9300D000D000D0CDB7DEB7CE
:10032000182F6E831D8219821A821B821C824D81B6
:100330005E81451315C0242F30E050E040E0698114
:100340007A818B819C810E948A03C90126960FB60F
:10035000F894DEBF0FBECDBFDF91CF911F910895FE
:10036000812F0E947D0129813A814B815C81280F78
:10037000391F411D511D29833A834B835C833D8185
:100380003F5F3D83D4CF2F932FB72F933F938F930E
:100390009F93EF93FF932CB180919C0090E0019686
:1003A0008770992730919B00381741F0E0919C00AD
:1003B000F0E0E356FF4F208380939C00FF91EF9184
:1003C0009F918F913F912F912FBF2F91189590BDA5
:1003D00089B9599A88E98AB986E880BD5F9902C0CF
:1003E000789408958CB1FACF20919C0090919B0055
:1003F00081E0291301C080E0089590919C008091D4
:100400009B009817D1F3E0919B00F0E0E356FF4F7B
:10041000808120919B0030E02F5F3F4F2770332772
:1004200020939B0008955D9BFECF8CB90895CDB7B6
:10043000DEB768970FB6F894DEBF0FBECDBF87B3A7
:10044000887F87BB88B3876088BB0E940D010E94AC
:1004500078018CE090E00E94E7016AE080E00E9471
:1004600088016AE080E00E9488016C015524539461
:100470008438934008F0512CB12CA12C912C812C64
:10048000412C81E08B8B91E09D8B21E02C8B92E1C4
:10049000392E8E010F5F1F4F21E8622E20E0722E51
:1004A0000E94F401811161C06AE00E9488017C0110
:1004B000A114B10419F081E0A81AB10891E09E8B53
:1004C00024E8E21623E0F20608F01E8A84E8E81623
:1004D00083E0F80608F071C051106FC0A114B10498
:1004E00071F48091970090919800019690939800F4
:1004F000809397005524539488ECA82EB12C86B392
:100500008170282E86B3382F3270869581708F8B3C
:1005100086B3282F247082FB882780F9888F8C89E6
:10052000813069F421100BC0809197009091980060
:1005300001969093980080939700552453949D8939
:100540009130E9F531113BC080919700909198006E
:100550000097A9F1019790939800809397008B8959
:100560008130B1F5222381F133C00E94FD01E09179
:1005700096008A30A1F4F0E0E257FF4F108210920B
:10058000960080918E00833509F08ACF8FE890E045
:100590000E94AC0390939A008093990081CFE7303A
:1005A00048F491E09E0F90939600F0E0E257FF4FE1
:1005B000808376CF1092960073CF512CA0CF9B8969
:1005C000913089F521112FC0109298001092970058
:1005D00080919700909198000E944900912C812C65
:1005E000809198008F93809197008F9380919A00CB
:1005F0008F93809199008F938FE690E09F938F93D4
:100600001F923F921F930F930E94D20360E080E0FD
:100610000E940501C8010E946B010FB6F894DEBF6D
:100620000FBECDBF13C05110D3CF2FEF821A920A45
:100630008EE18816910440F0809197009091980087
:100640000E944900912C812C442051F2439499E05E
:10065000941580F58AE690E024E8E21623E0F2069D
:1006600010F485E690E09F938F93FF92EF927F9234
:100670006F921F923F921F930F930E94D20360E0EC
:1006800081E00E940501C8010E946B010FB6F89439
:10069000DEBF0FBECDBF412C83EC99E00197F1F78F
:1006A00000C000005E886701988D9B8B2F892D8B81
:1006B0002C8AF6CEC7018C199D09CE14DF0418F0E0
:1006C000C6018E199F09C39718F194E8E91693E0C3
:1006D000F906D8F08AE690E09F938F93FF92EF920D
:1006E0007F926F921F923F921F930F930E94D203AB
:1006F00060E081E00E940501C8010E946B010FB615
:10070000F894DEBF0FBECDBFC7CF85E690E0E4CF43
:100710007601C2CFA1E21A2EAA1BBB1BFD010DC0A0
:10072000AA1FBB1FEE1FFF1FA217B307E407F507A1
:1007300020F0A21BB30BE40BF50B661F771F881F7D
:10074000991F1A9469F760957095809590959B0113
:10075000AC01BD01CF010895FC0188279927E894D9
:1007600021912032E9F3293010F02E30C8F32B32DA
:1007700041F02D3239F4689404C00E94CA03820FFC
:10078000911D219120532A30C0F31EF4909581953C
:100790009F4F08957AE0979F902D879F802D910D10
:1007A00011240895AEE0B0E0E8EDF3E00C948C067F
:1007B0000D891E898F89988D26E02C831A830983E1
:1007C00097FF02C080E090E801979E838D83AE0181
:1007D000455E5F4F698D7A8DCE0101960E940204BD
:1007E0004D815E8157FD0AC02F813885421753071E
:1007F0000CF49A01020F131FF80110822E96E4E008
:100800000C94A806AFE0B0E0E8E0F4E00C947E06BB
:100810007C013B018A01DC0117961C921E921697FF
:1008200013968C9181FFC3C19AE0292EFE01319667
:100830004F01D70113969C91F30193FD859193FF8E
:1008400081913F01882309F448C1853239F493FD31
:10085000859193FF81913F01853229F4B70190E0A2
:100860000E94F005E6CFB12C412C512CBFE1B5150B
:1008700038F08B3209F188F4803201F1833221F1B2
:1008800057FC3AC020ED280F2A3040F556FE1FC015
:10089000B29C200D1124B22E06C08D3291F080330F
:1008A00079F7689450F8F30193FD859193FF819156
:1008B0003F018111DBCF20C0689451F8689452F851
:1008C000F2CF689453F8EFCF689454F8ECCF429C81
:1008D000200D1124422E689455F8E5CF8E3229F46C
:1008E00056FCFBC0689456F8DECF8C3619F4689439
:1008F00057F8D9CF8836B9F2982F9F7D9554933009
:10090000C0F08336A1F18337C1F1833509F05BC0B4
:10091000D801CD90DD908D016B2D70E056FC02C0AA
:100920006FEF7FEFC6010E94DA055C01689457F80B
:100930000AC00C5F1F4FEFE3E983AA24A394B12CF4
:100940006401E89457F853FC04C04A141B0409F0EE
:1009500018F5342CA114B10431F5332009F469CF12
:10096000B70180E290E00E94F0053A94F6CFD801FA
:100970008C9189830E5F1F4FE0CFF801C190D19019
:100980008F016B2D70E056FC02C06FEF7FEFC60148
:100990000E94E5055C01D5CFB70180E290E00E949E
:1009A000F0054A94D2CFF60157FC859157FE81910C
:1009B0006F01B70190E00E94F00531103A94B1E068
:1009C000AB1AB108C7CF843619F0893609F074C064
:1009D000F80157FE6AC061917191819191918F01E7
:1009E000E52DEF76DE2E97FF09C0909580957095E6
:1009F00061957F4F8F4F9F4F6894D7F82AE030E082
:100A0000A4010E942006C82EC818AC2C5D2CD6FE6E
:100A10000CC0E89450F8CB1440F4D4FE05C0D2FCCE
:100A200003C05D2D5E7E552EAB2C54FE98C0FE019A
:100A3000EC0DF11D8081803309F08AC0652D697E3F
:100A4000562E752D7870372E53FC98C050FE92C0EC
:100A5000BC2CA41418F44C0CB42CBA1854FE94C03A
:100A6000B70180E390E00E94F00552FE09C088E7DC
:100A700090E051FE02C088E590E0B7010E94F005C9
:100A8000CB1408F48DC0CA94D12C8FEFC81AD80AA1
:100A9000C80CD91CD6018E916D01B70190E00E945F
:100AA000F0058C149D04B1F758CF61917191072E18
:100AB000000C880B990B93CFD52CE894D4F82AE03E
:100AC00030E0853739F1F52DF97FDF2E8037A9F039
:100AD00058F48835A9F08F36D9F0F70186819781CF
:100AE0002F96E2E10C949A068837B9F7D4FE02C03B
:100AF0006894D2F820E130E00DC06894D4F8F6CFC5
:100B000054FE03C02F2F2660D22E20E132E002C017
:100B100028E030E0F801D7FE15C041915191619174
:100B200071914C875D876E877F878F01A4016C85EB
:100B30007D858E859F850E942006C82EC818E89462
:100B4000D7F863CF81919191AC0170E060E0E9CF7B
:100B500052FC02C0A39475CFA394A39472CF852DA9
:100B6000867809F46ECFF6CFB70180E290E00E945C
:100B7000F005A394A414C0F3312C70CF342C3A1890
:100B8000A41408F46BCFF8CF852D867809F478CFBC
:100B90008BE251FE80E257FC8DE2B70190E06ECF10
:100BA000B70180E390E00E94F005BA9469CF8FEF1F
:100BB0009FEF96CFFC010590615070400110D8F76F
:100BC000809590958E0F9F1F0895FC016150704095
:100BD00001900110D8F7809590958E0F9F1F089572
:100BE0000F931F93CF93DF93182F092FEB018B8166
:100BF00081FD09C01FEF0FEF812F902FDF91CF9163
:100C00001F910F91089582FF14C02E813F818C8126
:100C10009D81281739073CF4E881F981CF010196BD
:100C20009983888310838E819F8101969F838E8311
:100C3000E3CFE885F985812F0995892BA1F3DACFD8
:100C4000FA01AA27283051F1203181F1E8946F93FD
:100C50006E7F6E5F7F4F8F4F9F4FAF4FB1E03ED0A3
:100C6000B4E03CD0670F781F891F9A1FA11D680F41
:100C7000791F8A1F911DA11D6A0F711D811D911D74
:100C8000A11D20D009F468943F912AE0269F1124E9
:100C90003019305D3193DEF6CF010895462F47704D
:100CA000405D4193B3E00FD0C9F7F6CF462F4F70A8
:100CB000405D4A3318F0495D31FD4052419302D006
:100CC000A9F7EACFB4E0A6959795879577956795AC
:100CD000BA95C9F700976105710508959B01AC01AC
:100CE0000A2E06945795479537952795BA95C9F7D3
:100CF000620F731F841F951FA01D08952F923F92AE
:100D00004F925F926F927F928F929F92AF92BF921B
:100D1000CF92DF92EF92FF920F931F93CF93DF93C7
:100D2000CDB7DEB7CA1BDB0B0FB6F894DEBF0FBE24
:100D3000CDBF09942A88398848885F846E847D8471
:100D40008C849B84AA84B984C884DF80EE80FD8073
:100D50000C811B81AA81B981CE0FD11D0FB6F894E9
:0E0D6000DEBF0FBECDBFED010895F894FFCFAA
:100D6E005325750A00676F616C0069646C650041FC
:100D7E002025752D20257520422020202020202082
:0E0D8E00005261773A2534752025732020002D
:00000001FF
