:100000000C942A000C943F000C943F000C943F0089
:100010000C943F000C943F000C943F000C943F0064
:100020000C943F000C943F000C943F000C943F0054
:100030000C943F000C943F000C943F000C943F0044
:100040000C943F000C943F000C943F000C943F0034
:100050000C943F0011241FBECFE5D8E0DEBFCDBF1A
:1000600010E0A0E6B0E0E4EDF2E002C005900D92F1
:10007000A837B107D9F70E9439010C9468010C9494
:10008000000080E197E206B607FE02C081E0089515
:100090000197C9F780E0089584B38C7F84BB85B352
:1000A000836085BB8DE08A95F1F70000A09A89E016
:1000B000A8989DE09A95F1F70000A89A9DE09A957E
:1000C000F1F700008150A1F711B88AE080B984E00F
:1000D00086BF0895CF93C82F84EA86BF0E9441004F
:1000E000882351F0C3B984E886BF0E944100982F4D
:1000F00081E0911101C080E0CF91089583B984E837
:1001000086BF0C94410084E986BF8DE08A95F1F7A3
:1001100000000895CF9320E1829FC0011124C82FD1
:10012000C860662311F0C82FC9608EE40E946A007F
:100130008823C9F08C2F0E947E0082E08A95F1F717
:1001400000C08C2F84600E947E0022E02A95F1F787
:1001500000C08C2F0E947E0082E48A95F1F700C0D7
:10016000CF910C948300CF910895CF93DF93C82F44
:10017000D62F82958F700E948A006D2F8C2F8F70E2
:10018000DF91CF910C948A0060E081E00E94B5007D
:1001900087E893E10197F1F700C0000008950E94FD
:1001A0004C002FE38DE093E0215080409040E1F738
:1001B00000C000008EE40E946A00882329F080E0DD
:1001C0000E947E000E9483008FE097E20197F1F782
:1001D00000C0000060E083E00E948A008FE097E2A8
:1001E0000197F1F700C0000060E083E00E948A0000
:1001F0008FEC97E00197F1F700C0000060E083E02A
:100200000E948A008FEC97E00197F1F700C0000090
:1002100060E082E00E948A0087E893E10197F1F7AD
:1002200000C0000060E088E20E94B50060E088E065
:100230000E94B5000E94C40060E086E00E94B50004
:1002400060E08CE00C94B500962F8111905C60E02A
:10025000892F80680C94B500CF93DF93EC018991CE
:10026000811103C0DF91CF91089561E00E94B50034
:10027000F6CF0E94CF0060E080E00E94240180E67B
:1002800090E00E942C012FE78AE196E02150804007
:100290009040E1F700C000000E94C40060E080E0F0
:1002A0000E94240180E690E00E942C0160E081E041
:1002B0000E9424018CE690E00E942C012FEF81E146
:1002C0009AE7215080409040E1F700C00000E6CF5F
:0402D000F894FFCFD0
:1002D40050617469656E63652E2E2E004932432089
:0802E400576F726B696E670031
:00000001FF
