:100000000C942A000C943C000C943C000C943C0092
:100010000C943C000C943C000C943C000C943C0070
:100020000C943C000C943C000C943C000C943C0060
:100030000C943C000C943E000C943C000C943C004E
:100040000C943C000C943C000C943C000C943C0040
:100050000C943C0011241FBECFE5D8E0DEBFCDBF1D
:1000600020E0A0E6B0E001C01D92AA36B207E1F799
:100070000E9492000C94A1000C9400002F932FB7C3
:100080002F933F938F939F93EF93FF932CB1809186
:10009000610090E0019687709927309160003817D1
:1000A00041F0E0916100F0E0EE59FF4F2083809332
:1000B0006100FF91EF919F918F913F912F912FBF01
:1000C0002F91189590BD89B9599A88E98AB986E81F
:1000D00080BD5F9902C0789408958CB1FACF2091C9
:1000E00061009091600081E0291301C080E00895D3
:1000F00090916100809160009817D1F3E0916000C9
:10010000F0E0EE59FF4F80812091600030E02F5FDA
:100110003F4F277033272093600008955D9BFECFEB
:100120008CB90895B89A8CE090E00E9462000E9419
:100130007800813311F4C09AFACF8033C1F7C098A8
:06014000F6CFF894FFCF9A
:00000001FF
