:100000000C942A000C9434000C9434000C943400AA
:100010000C9434000C9434000C9434000C94340090
:100020000C9434000C9434000C9434000C94340080
:100030000C9434000C9434000C9434000C94340070
:100040000C9434000C9434000C9434000C94340060
:100050000C94340011241FBECFE5D8E0DEBFCDBF25
:100060000E94F3000C946B010C94000090BD89B9C0
:1000700082E08BB988E18AB986E880BD08958BB1AA
:10008000807808955F9BFECF8CB1089581B3806323
:1000900081BB84B38F6184BBAC9A81EA8FBD89E058
:1000A0008EBD1BBC1ABC19BC18BC0895813031F43C
:1000B000A89AA99870E07BBD6ABD0895823019F4B2
:1000C000A898A99AF7CF85B38C7F85BBF3CF8130F1
:1000D00031F4AA9AAB9870E079BD68BD089582307A
:1000E00019F4AA98AB9AF7CF85B3837F85BBF3CF7A
:1000F000CF93C82F682F81E00E9456006C2F81E0BB
:10010000CF910C946700CF93C82F682F82E00E9494
:1001100056006C2F82E0CF910C946700CF93C82FCC
:10012000682F82E00E9456006C2F81E0CF910C94E2
:100130006700CF93C82F682F81E00E9456006C2F74
:1001400082E0CF910C94670060E080E00E9456004E
:1001500060E080E00C9467001F93CF93DF93182F2B
:10016000D62FC22F4633E9F0483331F04433E9F457
:100170008CED0E948E0003C08FEF0E94830087EAFF
:1001800091E60197F1F700C00000C63331F18CF41D
:10019000C233B9F0C433D9F0DF91CF911F910C94E1
:1001A000A4008CED0E949900EACF8FEF0E947800A6
:1001B000E6CFC83389F7812FDF91CF911F910C943F
:1001C0008300812FDF91CF911F910C9478008D2FA8
:1001D000DF91CF911F910C948E008D2FDF91CF91E5
:1001E0001F910C94990084B7806884BF84B780689D
:1001F00084BF8CE090E00E9436000E944600D0E070
:10020000C0E310E0EE24E3945F9BFECF0E94420027
:10021000082FF12EFE24853311F59CE882E8111198
:1002200002C09FEF8CEDC633B9F034F4C23349F00D
:10023000C43379F01F2DE8CFC83339F01F2DC7E341
:10024000E3CF892F0E947800F5CF892F0E94830089
:10025000F1CF0E948E00EECF0E949900EBCF8FEF7E
:100260006CED111102C08CE862E8E0EDE00FEA30BD
:1002700058F60E2E000CFF0BE359FE4F0C9465014F
:100280000E947800C02FD0E0BFCF0E948300FACF39
:10029000862F0E948E00F6CF862F0E949900F2CF03
:1002A000D111F1CF0E94A400C02FAECF2C2F42E37A
:1002B0000E94AC00D1E0A8CF2C2F48E3F9CF2C2F1F
:1002C00044E3F6CF2C2F46E3F3CFEE0FFF1F05904C
:1002D000F491E02D0994F894FFCF500156014001AC
:0E02E0006201480104014C015F0145015C010F
:00000001FF
