:100000000C942A000C9434000C9434000C943400AA
:100010000C9434000C9434000C9434000C94340090
:100020000C9434000C9434000C9434000C94340080
:100030000C9434000C9434000C9434000C94340070
:100040000C9434000C9434000C9434000C94340060
:100050000C94340011241FBECFE5D8E0DEBFCDBF25
:100060000E94AC000C9409010C94000090BD89B969
:1000700082E08BB988E18AB986E880BD08958BB1AA
:10008000807808955F9BFECF8CB1089581B3806323
:1000900081BB84B38F6184BBAC9A81EA8FBD89E058
:1000A0008EBD1BBC1ABC19BC18BC0895813031F43C
:1000B000A89AA99870E07BBD6ABD0895823019F4B2
:1000C000A898A99AF7CF85B38C7F85BBF3CF8130F1
:1000D00031F4AA9AAB9870E079BD68BD089582307A
:1000E00019F4AA98AB9AF7CF85B3837F85BBF3CF7A
:1000F000CF93C82F682F81E00E9456006C2F81E0BB
:10010000CF910C946700CF93C82F682F82E00E9494
:1001100056006C2F82E0CF910C946700CF93C82FCC
:10012000682F82E00E9456006C2F81E0CF910C94E2
:100130006700CF93C82F682F81E00E9456006C2F74
:1001400082E0CF910C94670060E080E00E9456004E
:1001500060E080E00C94670084B7806884BF84B757
:10016000806884BF8CE090E00E9436000E944600C8
:10017000C0E3D0E001E05F9BFECF0E944200982FD9
:100180001D2F10278533F9F49FEF8CEDD13011F43A
:100190009CE882E8C633A1F06CF4C23331F0D12F71
:1001A000C433A9F50E948E0003C0892F0E947800F5
:1001B000D12FE1CF892F0E948300D12FC8E3DBCF5D
:1001C0000E949900F5CF2FEF8CEDD11102C02CE8E1
:1001D00082E8943391F04CF49033B9F0923359F6AD
:1001E000822F0E947800C2E3C6CF963351F0983335
:1001F00011F6822F0E948300E1CF0E948E00C4E39B
:10020000BACF0E949900C6E3B6CF0E94A400C0E313
:06021000B2CFF894FFCF0D
:00000001FF
